{
  "contractName": "DeElect",
  "abi": [
    {
      "inputs": [],
      "payable": false,
      "stateMutability": "nonpayable",
      "type": "constructor"
    },
    {
      "anonymous": false,
      "inputs": [
        {
          "indexed": true,
          "internalType": "address",
          "name": "_approvedTo",
          "type": "address"
        }
      ],
      "name": "ApproveStrength",
      "type": "event"
    },
    {
      "anonymous": false,
      "inputs": [
        {
          "indexed": true,
          "internalType": "address",
          "name": "_voter",
          "type": "address"
        },
        {
          "indexed": false,
          "internalType": "uint256",
          "name": "_candidate",
          "type": "uint256"
        },
        {
          "indexed": false,
          "internalType": "uint256",
          "name": "_strength",
          "type": "uint256"
        }
      ],
      "name": "CastVote",
      "type": "event"
    },
    {
      "anonymous": false,
      "inputs": [
        {
          "indexed": true,
          "internalType": "address",
          "name": "_delegator",
          "type": "address"
        },
        {
          "indexed": true,
          "internalType": "address",
          "name": "_delegatedTo",
          "type": "address"
        },
        {
          "indexed": false,
          "internalType": "uint256",
          "name": "_strength",
          "type": "uint256"
        }
      ],
      "name": "DelegateVote",
      "type": "event"
    },
    {
      "constant": true,
      "inputs": [],
      "name": "delegationPeriod",
      "outputs": [
        {
          "internalType": "uint256",
          "name": "",
          "type": "uint256"
        }
      ],
      "payable": false,
      "stateMutability": "view",
      "type": "function"
    },
    {
      "constant": true,
      "inputs": [],
      "name": "electionCommision",
      "outputs": [
        {
          "internalType": "address",
          "name": "",
          "type": "address"
        }
      ],
      "payable": false,
      "stateMutability": "view",
      "type": "function"
    },
    {
      "constant": true,
      "inputs": [],
      "name": "numberOfCandidates",
      "outputs": [
        {
          "internalType": "uint256",
          "name": "",
          "type": "uint256"
        }
      ],
      "payable": false,
      "stateMutability": "view",
      "type": "function"
    },
    {
      "constant": true,
      "inputs": [],
      "name": "numberOfVoters",
      "outputs": [
        {
          "internalType": "uint256",
          "name": "",
          "type": "uint256"
        }
      ],
      "payable": false,
      "stateMutability": "view",
      "type": "function"
    },
    {
      "constant": true,
      "inputs": [],
      "name": "voterApprovalPeriod",
      "outputs": [
        {
          "internalType": "uint256",
          "name": "",
          "type": "uint256"
        }
      ],
      "payable": false,
      "stateMutability": "view",
      "type": "function"
    },
    {
      "constant": true,
      "inputs": [
        {
          "internalType": "address",
          "name": "",
          "type": "address"
        }
      ],
      "name": "voterStrengths",
      "outputs": [
        {
          "internalType": "uint256",
          "name": "",
          "type": "uint256"
        }
      ],
      "payable": false,
      "stateMutability": "view",
      "type": "function"
    },
    {
      "constant": true,
      "inputs": [],
      "name": "votingPeriod",
      "outputs": [
        {
          "internalType": "uint256",
          "name": "",
          "type": "uint256"
        }
      ],
      "payable": false,
      "stateMutability": "view",
      "type": "function"
    },
    {
      "constant": true,
      "inputs": [
        {
          "internalType": "uint256",
          "name": "_candidate",
          "type": "uint256"
        }
      ],
      "name": "getVoteCounts",
      "outputs": [
        {
          "internalType": "uint256",
          "name": "",
          "type": "uint256"
        }
      ],
      "payable": false,
      "stateMutability": "view",
      "type": "function"
    },
    {
      "constant": false,
      "inputs": [
        {
          "internalType": "address",
          "name": "_voter",
          "type": "address"
        }
      ],
      "name": "approveStrength",
      "outputs": [
        {
          "internalType": "bool",
          "name": "",
          "type": "bool"
        }
      ],
      "payable": false,
      "stateMutability": "nonpayable",
      "type": "function"
    },
    {
      "constant": false,
      "inputs": [
        {
          "internalType": "uint256",
          "name": "_candidate",
          "type": "uint256"
        }
      ],
      "name": "castVote",
      "outputs": [],
      "payable": false,
      "stateMutability": "nonpayable",
      "type": "function"
    },
    {
      "constant": false,
      "inputs": [
        {
          "internalType": "address",
          "name": "_voter",
          "type": "address"
        }
      ],
      "name": "delegateStrength",
      "outputs": [],
      "payable": false,
      "stateMutability": "nonpayable",
      "type": "function"
    },
    {
      "constant": true,
      "inputs": [],
      "name": "winnerWho",
      "outputs": [
        {
          "internalType": "uint256",
          "name": "",
          "type": "uint256"
        }
      ],
      "payable": false,
      "stateMutability": "view",
      "type": "function"
    }
  ],
  "bytecode": "0x60806040526002600055600560015534801561001a57600080fd5b5060005460405190808252806020026020018201604052801561004c5781602001602082028038833980820191505090505b506003908051906020019061006292919061013a565b5033600460006101000a81548173ffffffffffffffffffffffffffffffffffffffff021916908373ffffffffffffffffffffffffffffffffffffffff16021790555060015460026000600460009054906101000a900473ffffffffffffffffffffffffffffffffffffffff1673ffffffffffffffffffffffffffffffffffffffff1673ffffffffffffffffffffffffffffffffffffffff168152602001908152602001600020819055506201518042016005819055506201518060055401600681905550630107ac00600654016007819055506101ac565b828054828255906000526020600020908101928215610176579160200282015b8281111561017557825182559160200191906001019061015a565b5b5090506101839190610187565b5090565b6101a991905b808211156101a557600081600090555060010161018d565b5090565b90565b61124780620001bc6000396000f3fe608060405234801561001057600080fd5b50600436106100b45760003560e01c806386dcb6831161007157806386dcb683146101e15780638a241f4c1461022b5780639bcc33611461026d5780639c84bb271461028b578063c1e127ca146102a9578063ec8c1b92146102c7576100b4565b806302a251a3146100b9578063096da815146100d75780632832b0e4146101335780633eb76b9c1461015157806364e41b2e1461017f5780636de76f97146101c3575b600080fd5b6100c161031f565b6040518082815260200191505060405180910390f35b610119600480360360208110156100ed57600080fd5b81019080803573ffffffffffffffffffffffffffffffffffffffff169060200190929190505050610325565b604051808215151515815260200191505060405180910390f35b61013b6106c6565b6040518082815260200191505060405180910390f35b61017d6004803603602081101561016757600080fd5b81019080803590602001909291905050506106cc565b005b6101c16004803603602081101561019557600080fd5b81019080803573ffffffffffffffffffffffffffffffffffffffff169060200190929190505050610ac1565b005b6101cb61104b565b6040518082815260200191505060405180910390f35b6101e9611051565b604051808273ffffffffffffffffffffffffffffffffffffffff1673ffffffffffffffffffffffffffffffffffffffff16815260200191505060405180910390f35b6102576004803603602081101561024157600080fd5b8101908080359060200190929190505050611077565b6040518082815260200191505060405180910390f35b61027561110e565b6040518082815260200191505060405180910390f35b610293611114565b6040518082815260200191505060405180910390f35b6102b161111a565b6040518082815260200191505060405180910390f35b610309600480360360208110156102dd57600080fd5b81019080803573ffffffffffffffffffffffffffffffffffffffff16906020019092919050505061117c565b6040518082815260200191505060405180910390f35b60075481565b6000600460009054906101000a900473ffffffffffffffffffffffffffffffffffffffff1673ffffffffffffffffffffffffffffffffffffffff163373ffffffffffffffffffffffffffffffffffffffff161461038157600080fd5b6005544211156103dc576040517f08c379a00000000000000000000000000000000000000000000000000000000081526004018080602001828103825260238152602001806111956023913960400191505060405180910390fd5b6001600260008473ffffffffffffffffffffffffffffffffffffffff1673ffffffffffffffffffffffffffffffffffffffff168152602001908152602001600020541415610492576040517f08c379a00000000000000000000000000000000000000000000000000000000081526004018080602001828103825260198152602001807f416c726561647920617070726f76656420537472656e6774680000000000000081525060200191505060405180910390fd5b600460009054906101000a900473ffffffffffffffffffffffffffffffffffffffff1673ffffffffffffffffffffffffffffffffffffffff168273ffffffffffffffffffffffffffffffffffffffff1614156104ed57600080fd5b600160026000600460009054906101000a900473ffffffffffffffffffffffffffffffffffffffff1673ffffffffffffffffffffffffffffffffffffffff1673ffffffffffffffffffffffffffffffffffffffff1681526020019081526020016000205410156105c5576040517f08c379a000000000000000000000000000000000000000000000000000000000815260040180806020018281038252601b8152602001807f537472656e67746820417070726f76616c20436f6d706c65746564000000000081525060200191505060405180910390fd5b6001600260008473ffffffffffffffffffffffffffffffffffffffff1673ffffffffffffffffffffffffffffffffffffffff16815260200190815260200160002081905550600160026000600460009054906101000a900473ffffffffffffffffffffffffffffffffffffffff1673ffffffffffffffffffffffffffffffffffffffff1673ffffffffffffffffffffffffffffffffffffffff168152602001908152602001600020600082825403925050819055508173ffffffffffffffffffffffffffffffffffffffff167f38cdee09c25acfd06b7d07212067cae14e428b44592f81ffd2f3e21cffe1e8b460405160405180910390a260019050919050565b60055481565b6001600260003373ffffffffffffffffffffffffffffffffffffffff1673ffffffffffffffffffffffffffffffffffffffff168152602001908152602001600020541015610782576040517f08c379a000000000000000000000000000000000000000000000000000000000815260040180806020018281038252600d8152602001807f5a65726f20537472656e6774680000000000000000000000000000000000000081525060200191505060405180910390fd5b600460009054906101000a900473ffffffffffffffffffffffffffffffffffffffff1673ffffffffffffffffffffffffffffffffffffffff163373ffffffffffffffffffffffffffffffffffffffff161415610846576040517f08c379a000000000000000000000000000000000000000000000000000000000815260040180806020018281038252600b8152602001807f4e6f74206120566f74657200000000000000000000000000000000000000000081525060200191505060405180910390fd5b60065442116108bd576040517f08c379a000000000000000000000000000000000000000000000000000000000815260040180806020018281038252601c8152602001807f566f74652063617374696e67206e6f742073746172746564207965740000000081525060200191505060405180910390fd5b600754421115610935576040517f08c379a00000000000000000000000000000000000000000000000000000000081526004018080602001828103825260128152602001807f566f74652063617374696e6720656e646564000000000000000000000000000081525060200191505060405180910390fd5b80600011158015610947575060005481105b6109b9576040517f08c379a000000000000000000000000000000000000000000000000000000000815260040180806020018281038252600f8152602001807f4e6f7420612063616e646964617465000000000000000000000000000000000081525060200191505060405180910390fd5b6000600260003373ffffffffffffffffffffffffffffffffffffffff1673ffffffffffffffffffffffffffffffffffffffff1681526020019081526020016000205490508060038381548110610a0b57fe5b90600052602060002001600082825401925050819055506000600260003373ffffffffffffffffffffffffffffffffffffffff1673ffffffffffffffffffffffffffffffffffffffff168152602001908152602001600020819055503373ffffffffffffffffffffffffffffffffffffffff167f6297c19abf5ab64ebe34aae70f2fe03ab19d2dcc80433b9f14f5993946571a148383604051808381526020018281526020019250505060405180910390a25050565b6001600260003373ffffffffffffffffffffffffffffffffffffffff1673ffffffffffffffffffffffffffffffffffffffff168152602001908152602001600020541015610b77576040517f08c379a000000000000000000000000000000000000000000000000000000000815260040180806020018281038252600d8152602001807f5a65726f20537472656e6774680000000000000000000000000000000000000081525060200191505060405180910390fd5b600460009054906101000a900473ffffffffffffffffffffffffffffffffffffffff1673ffffffffffffffffffffffffffffffffffffffff163373ffffffffffffffffffffffffffffffffffffffff161415610c3b576040517f08c379a000000000000000000000000000000000000000000000000000000000815260040180806020018281038252600b8152602001807f4e6f74206120566f74657200000000000000000000000000000000000000000081525060200191505060405180910390fd5b6005544211610c95576040517f08c379a000000000000000000000000000000000000000000000000000000000815260040180806020018281038252602a8152602001806111e9602a913960400191505060405180910390fd5b600654421115610d0d576040517f08c379a00000000000000000000000000000000000000000000000000000000081526004018080602001828103825260208152602001807f537472656e6774682044656c65676174696f6e20506572696f6420456e64656481525060200191505060405180910390fd5b600460009054906101000a900473ffffffffffffffffffffffffffffffffffffffff1673ffffffffffffffffffffffffffffffffffffffff168173ffffffffffffffffffffffffffffffffffffffff161415610dd1576040517f08c379a000000000000000000000000000000000000000000000000000000000815260040180806020018281038252601d8152602001807f43616e27742064656c656761746520737472656e67746820746f20454300000081525060200191505060405180910390fd5b6001600260008373ffffffffffffffffffffffffffffffffffffffff1673ffffffffffffffffffffffffffffffffffffffff168152602001908152602001600020541015610e6a576040517f08c379a00000000000000000000000000000000000000000000000000000000081526004018080602001828103825260318152602001806111b86031913960400191505060405180910390fd5b3373ffffffffffffffffffffffffffffffffffffffff168173ffffffffffffffffffffffffffffffffffffffff161415610f0c576040517f08c379a00000000000000000000000000000000000000000000000000000000081526004018080602001828103825260178152602001807f43616e6e6f742044656c656761746520546f2053656c6600000000000000000081525060200191505060405180910390fd5b6000600260003373ffffffffffffffffffffffffffffffffffffffff1673ffffffffffffffffffffffffffffffffffffffff16815260200190815260200160002054905080600260008473ffffffffffffffffffffffffffffffffffffffff1673ffffffffffffffffffffffffffffffffffffffff168152602001908152602001600020600082825401925050819055506000600260003373ffffffffffffffffffffffffffffffffffffffff1673ffffffffffffffffffffffffffffffffffffffff168152602001908152602001600020819055508173ffffffffffffffffffffffffffffffffffffffff163373ffffffffffffffffffffffffffffffffffffffff167fbed9baecfaa98a0406455da632a39f2009c3cfd0220a5748b82acfbeeb212072836040518082815260200191505060405180910390a35050565b60065481565b600460009054906101000a900473ffffffffffffffffffffffffffffffffffffffff1681565b6000805482106110ef576040517f08c379a000000000000000000000000000000000000000000000000000000000815260040180806020018281038252600f8152602001807f4e6f7420612063616e646964617465000000000000000000000000000000000081525060200191505060405180910390fd5b600382815481106110fc57fe5b90600052602060002001549050919050565b60015481565b60005481565b60008060008090505b600054811015611174576003828154811061113a57fe5b90600052602060002001546003828154811061115257fe5b90600052602060002001541115611167578091505b8080600101915050611123565b508091505090565b6002602052806000526040600020600091509050548156fe537472656e6774682043616e6e6f7420426520417070726f76656420416e796d6f726544656c65676174696f6e20746f205a65726f2d537472656e677468204163636f756e742069732072657374726963746564537472656e6774682044656c65676174696f6e20506572696f64206e6f74207374617274656420796574a265627a7a72315820a57d70af0de37c8ad0ea2147fbfed3d66ccc3a88c479ba717eeeba35945ec3f164736f6c63430005100032",
  "source": "// SPDX-License-Identifier: MIT\r\npragma solidity >=0.4.22 <0.9.0;\r\n\r\ncontract DeElect {\r\n    uint256 public numberOfCandidates = 2; // Number of Candidates\r\n    uint256 public numberOfVoters = 5; // Total number of voters\r\n\r\n    mapping(address => uint256) public voterStrengths; // Strength of Voter \r\n    uint256[] voteCounts; // Count of Votes of Candidates\r\n    address public electionCommision;\r\n\r\n    // Time Periods\r\n    uint256 public voterApprovalPeriod;\r\n    uint256 public delegationPeriod;\r\n    uint256 public votingPeriod;\r\n\r\n    // Events\r\n    event CastVote(address indexed _voter, uint256 _candidate, uint256 _strength);\r\n    event DelegateVote(address indexed _delegator, address indexed _delegatedTo, uint256 _strength);\r\n    event ApproveStrength(address indexed _approvedTo);\r\n\r\n\r\n\r\n    // Verify if user is Election Commision or Not\r\n    modifier EC {\r\n        require(msg.sender == electionCommision);\r\n        _;\r\n    }\r\n    // Valid Voter Check\r\n    modifier voter {\r\n        require(voterStrengths[msg.sender] >= 1, \"Zero Strength\");\r\n        require(msg.sender != electionCommision, \"Not a Voter\");\r\n        _;\r\n    }\r\n    // Voting Period Check\r\n    modifier votingTime {\r\n        require(block.timestamp > delegationPeriod, \"Vote casting not started yet\");\r\n        require(block.timestamp <= votingPeriod, \"Vote casting ended\");\r\n        _;\r\n    }\r\n    // Voter Approval Period Check\r\n    modifier approvalTime {\r\n        require(block.timestamp <= voterApprovalPeriod, \"Strength Cannot Be Approved Anymore\");\r\n        _;\r\n    }\r\n    // Delegation Period Check\r\n    modifier delegationTime {\r\n        require(block.timestamp > voterApprovalPeriod, \"Strength Delegation Period not started yet\");\r\n        require(block.timestamp <= delegationPeriod, \"Strength Delegation Period Ended\");\r\n        _;\r\n    }\r\n\r\n\r\n\r\n    constructor () public {\r\n        voteCounts = new uint256[](numberOfCandidates);\r\n        electionCommision = msg.sender;\r\n        voterStrengths[electionCommision] = numberOfVoters; // Initially EC will have all the voting strengths, which will be distributed among voters equally\r\n\r\n        voterApprovalPeriod = block.timestamp + 1 days; // In this period, EC will be able to distribute voting strengths to Voters\r\n        delegationPeriod = voterApprovalPeriod + 1 days; // In this period, Voters will be able to delegate steir strengths to others\r\n        votingPeriod = delegationPeriod + 200 days; // Casting votes will be accepted during this period \r\n    }\r\n\r\n\r\n    // Get Vote Counts of Candidates\r\n    function getVoteCounts(uint256 _candidate) public view returns(uint256) {\r\n        require(_candidate < numberOfCandidates, \"Not a candidate\");\r\n        return voteCounts[_candidate];\r\n    }\r\n\r\n    // EC Approves Voting strength to voters\r\n    function approveStrength(address _voter) external EC approvalTime returns(bool) {\r\n        require(voterStrengths[_voter] != 1, \"Already approved Strength\");\r\n        require(_voter != electionCommision);\r\n        require(voterStrengths[electionCommision] >= 1, \"Strength Approval Completed\");\r\n\r\n        voterStrengths[_voter] = 1;\r\n        voterStrengths[electionCommision] -= 1;\r\n\r\n        emit ApproveStrength(_voter);\r\n        return true;\r\n    }\r\n\r\n    // Cast your vote\r\n    // Input => Candidate No.\r\n    function castVote(uint256 _candidate) external voter votingTime {\r\n        require(0 <= _candidate && _candidate < numberOfCandidates, \"Not a candidate\");\r\n\r\n        uint256 _strength = voterStrengths[msg.sender];\r\n        voteCounts[_candidate] += _strength;\r\n        voterStrengths[msg.sender] = 0;\r\n\r\n        emit CastVote(msg.sender, _candidate, _strength);\r\n    }\r\n\r\n    // Delegate your strength to someone you want to cast vote for you\r\n    function delegateStrength(address _voter) external voter delegationTime {\r\n        require(_voter != electionCommision, \"Can't delegate strength to EC\");\r\n        require(voterStrengths[_voter] >= 1, \"Delegation to Zero-Strength Account is restricted\");\r\n        require(_voter != msg.sender, \"Cannot Delegate To Self\");\r\n        \r\n        uint256 _strength = voterStrengths[msg.sender];\r\n        voterStrengths[_voter] += _strength;\r\n        voterStrengths[msg.sender] = 0;\r\n\r\n        emit DelegateVote(msg.sender, _voter, _strength);\r\n    }\r\n\r\n    // Who's the winner\r\n    function winnerWho() public view returns(uint256) {\r\n\r\n        uint256 winner;\r\n        for(uint256 i=0; i<numberOfCandidates; i++) {\r\n            if(voteCounts[i] > voteCounts[winner]) {\r\n                winner = i;\r\n            }\r\n        }\r\n\r\n        return winner;\r\n    }\r\n\r\n}",
  "sourcePath": "C:/Users/sudip/Desktop/DeVote/contracts/DeElect.sol",
  "compiler": {
    "name": "solc",
    "version": "0.5.16+commit.9c3226ce.Emscripten.clang"
  },
  "schemaVersion": "3.3.4",
  "updatedAt": "2021-03-27T08:25:59.192Z",
  "networkType": "ethereum",
  "devdoc": {
    "methods": {}
  },
  "userdoc": {
    "methods": {}
  }
}